:100000000C942A000C9445000C9445000C94450077
:100010000C9445000C9445000C9445000C9445004C
:100020000C9445000C9445000C9445000C9445003C
:100030000C9445000C9445000C9445000C9445002C
:100040000C9445000C9445000C9445000C9445001C
:100050000C94450011241FBECFE5D8E0DEBFCDBF14
:0C0060000E9441000C943600F894FFCF81
:10006C00EC010E944A000E944900CE010E944B0004
:06007C00CE010E944700C6
:0800820088E081BB82BBFFCFC7
:04008A000C940000D2
:04008E000E94340098
:020092000895CF
:020094000895CD
:020096000895CB
:00000001FF
